{
  "contractName": "DocumentOwnership",
  "abi": [
    {
      "anonymous": false,
      "inputs": [
        {
          "indexed": true,
          "internalType": "address",
          "name": "_owner",
          "type": "address"
        },
        {
          "indexed": true,
          "internalType": "address",
          "name": "_approved",
          "type": "address"
        },
        {
          "indexed": true,
          "internalType": "uint256",
          "name": "_tokenId",
          "type": "uint256"
        }
      ],
      "name": "Approval",
      "type": "event"
    },
    {
      "anonymous": false,
      "inputs": [
        {
          "indexed": false,
          "internalType": "uint256",
          "name": "documentId",
          "type": "uint256"
        },
        {
          "indexed": false,
          "internalType": "string",
          "name": "name",
          "type": "string"
        },
        {
          "indexed": false,
          "internalType": "uint256",
          "name": "age",
          "type": "uint256"
        }
      ],
      "name": "NewDocument",
      "type": "event"
    },
    {
      "anonymous": false,
      "inputs": [
        {
          "indexed": true,
          "internalType": "address",
          "name": "previousOwner",
          "type": "address"
        },
        {
          "indexed": true,
          "internalType": "address",
          "name": "newOwner",
          "type": "address"
        }
      ],
      "name": "OwnershipTransferred",
      "type": "event"
    },
    {
      "anonymous": false,
      "inputs": [
        {
          "indexed": true,
          "internalType": "address",
          "name": "_from",
          "type": "address"
        },
        {
          "indexed": true,
          "internalType": "address",
          "name": "_to",
          "type": "address"
        },
        {
          "indexed": true,
          "internalType": "uint256",
          "name": "_tokenId",
          "type": "uint256"
        }
      ],
      "name": "Transfer",
      "type": "event"
    },
    {
      "inputs": [
        {
          "internalType": "uint256",
          "name": "_documentId",
          "type": "uint256"
        },
        {
          "internalType": "uint256",
          "name": "_newAge",
          "type": "uint256"
        }
      ],
      "name": "changeAge",
      "outputs": [],
      "stateMutability": "nonpayable",
      "type": "function"
    },
    {
      "inputs": [
        {
          "internalType": "uint256",
          "name": "_documentId",
          "type": "uint256"
        },
        {
          "internalType": "string",
          "name": "_newName",
          "type": "string"
        }
      ],
      "name": "changeName",
      "outputs": [],
      "stateMutability": "nonpayable",
      "type": "function"
    },
    {
      "inputs": [
        {
          "internalType": "string",
          "name": "_name",
          "type": "string"
        },
        {
          "internalType": "uint256",
          "name": "_age",
          "type": "uint256"
        }
      ],
      "name": "createDocument",
      "outputs": [],
      "stateMutability": "nonpayable",
      "type": "function"
    },
    {
      "inputs": [
        {
          "internalType": "uint256",
          "name": "",
          "type": "uint256"
        }
      ],
      "name": "documentToOwner",
      "outputs": [
        {
          "internalType": "address",
          "name": "",
          "type": "address"
        }
      ],
      "stateMutability": "view",
      "type": "function"
    },
    {
      "inputs": [
        {
          "internalType": "uint256",
          "name": "",
          "type": "uint256"
        }
      ],
      "name": "documents",
      "outputs": [
        {
          "internalType": "string",
          "name": "name",
          "type": "string"
        },
        {
          "internalType": "uint256",
          "name": "age",
          "type": "uint256"
        }
      ],
      "stateMutability": "view",
      "type": "function"
    },
    {
      "inputs": [
        {
          "internalType": "address",
          "name": "_owner",
          "type": "address"
        }
      ],
      "name": "getDocumentsByOwner",
      "outputs": [
        {
          "internalType": "uint256[]",
          "name": "",
          "type": "uint256[]"
        }
      ],
      "stateMutability": "view",
      "type": "function"
    },
    {
      "inputs": [],
      "name": "isOwner",
      "outputs": [
        {
          "internalType": "bool",
          "name": "",
          "type": "bool"
        }
      ],
      "stateMutability": "view",
      "type": "function"
    },
    {
      "inputs": [],
      "name": "owner",
      "outputs": [
        {
          "internalType": "address",
          "name": "",
          "type": "address"
        }
      ],
      "stateMutability": "view",
      "type": "function"
    },
    {
      "inputs": [
        {
          "internalType": "address",
          "name": "",
          "type": "address"
        }
      ],
      "name": "ownerDocumentCount",
      "outputs": [
        {
          "internalType": "uint256",
          "name": "",
          "type": "uint256"
        }
      ],
      "stateMutability": "view",
      "type": "function"
    },
    {
      "inputs": [],
      "name": "renounceOwnership",
      "outputs": [],
      "stateMutability": "nonpayable",
      "type": "function"
    },
    {
      "inputs": [
        {
          "internalType": "address",
          "name": "newOwner",
          "type": "address"
        }
      ],
      "name": "transferOwnership",
      "outputs": [],
      "stateMutability": "nonpayable",
      "type": "function"
    },
    {
      "inputs": [
        {
          "internalType": "address",
          "name": "_owner",
          "type": "address"
        }
      ],
      "name": "balanceOf",
      "outputs": [
        {
          "internalType": "uint256",
          "name": "",
          "type": "uint256"
        }
      ],
      "stateMutability": "view",
      "type": "function"
    },
    {
      "inputs": [
        {
          "internalType": "uint256",
          "name": "_tokenId",
          "type": "uint256"
        }
      ],
      "name": "ownerOf",
      "outputs": [
        {
          "internalType": "address",
          "name": "",
          "type": "address"
        }
      ],
      "stateMutability": "view",
      "type": "function"
    },
    {
      "inputs": [
        {
          "internalType": "address",
          "name": "_from",
          "type": "address"
        },
        {
          "internalType": "address",
          "name": "_to",
          "type": "address"
        },
        {
          "internalType": "uint256",
          "name": "_tokenId",
          "type": "uint256"
        }
      ],
      "name": "transferFrom",
      "outputs": [],
      "stateMutability": "nonpayable",
      "type": "function"
    },
    {
      "inputs": [
        {
          "internalType": "address",
          "name": "_approved",
          "type": "address"
        },
        {
          "internalType": "uint256",
          "name": "_tokenId",
          "type": "uint256"
        }
      ],
      "name": "approve",
      "outputs": [],
      "stateMutability": "payable",
      "type": "function"
    }
  ],
  "bytecode": "0x608060405234801561001057600080fd5b50336000806101000a81548173ffffffffffffffffffffffffffffffffffffffff021916908373ffffffffffffffffffffffffffffffffffffffff16021790555060008054906101000a900473ffffffffffffffffffffffffffffffffffffffff1673ffffffffffffffffffffffffffffffffffffffff16600073ffffffffffffffffffffffffffffffffffffffff167f8be0079c531659141344cd1fd0a4f28419497f9722a3daafe3b4186f6b6457e060405160405180910390a3611856806100db6000396000f3fe6080604052600436106100e85760003560e01c806370a082311161008a5780638f32d59b116100595780638f32d59b146102f7578063c2ed2b0514610322578063c39cbef114610360578063f2fde38b14610389576100e8565b806370a082311461023b578063715018a6146102785780637ddfc7d41461028f5780638da5cb5b146102cc576100e8565b806323b872dd116100c657806323b872dd1461016f5780635d246cac146101985780636352211e146101c157806368843384146101fe576100e8565b8063076432b1146100ed578063095ea7b31461012a57806320de683114610146575b600080fd5b3480156100f957600080fd5b50610114600480360381019061010f919061106d565b6103b2565b60405161012191906110db565b60405180910390f35b610144600480360381019061013f9190611122565b6103e5565b005b34801561015257600080fd5b5061016d60048036038101906101689190611162565b610503565b005b34801561017b57600080fd5b50610196600480360381019061019191906111a2565b61059e565b005b3480156101a457600080fd5b506101bf60048036038101906101ba919061133b565b610682565b005b3480156101cd57600080fd5b506101e860048036038101906101e3919061106d565b6107e7565b6040516101f591906110db565b60405180910390f35b34801561020a57600080fd5b5061022560048036038101906102209190611397565b610824565b60405161023291906113d3565b60405180910390f35b34801561024757600080fd5b50610262600480360381019061025d9190611397565b61083c565b60405161026f91906113d3565b60405180910390f35b34801561028457600080fd5b5061028d610885565b005b34801561029b57600080fd5b506102b660048036038101906102b19190611397565b610954565b6040516102c391906114ac565b60405180910390f35b3480156102d857600080fd5b506102e1610aa7565b6040516102ee91906110db565b60405180910390f35b34801561030357600080fd5b5061030c610ad0565b60405161031991906114e9565b60405180910390f35b34801561032e57600080fd5b506103496004803603810190610344919061106d565b610b27565b60405161035792919061158c565b60405180910390f35b34801561036c57600080fd5b506103876004803603810190610382919061161c565b610be3565b005b34801561039557600080fd5b506103b060048036038101906103ab9190611397565b610c8a565b005b60026020528060005260406000206000915054906101000a900473ffffffffffffffffffffffffffffffffffffffff1681565b806002600082815260200190815260200160002060009054906101000a900473ffffffffffffffffffffffffffffffffffffffff1673ffffffffffffffffffffffffffffffffffffffff163373ffffffffffffffffffffffffffffffffffffffff161461045157600080fd5b826004600084815260200190815260200160002060006101000a81548173ffffffffffffffffffffffffffffffffffffffff021916908373ffffffffffffffffffffffffffffffffffffffff160217905550818373ffffffffffffffffffffffffffffffffffffffff163373ffffffffffffffffffffffffffffffffffffffff167f8c5be1e5ebec7d5bd14f71427d1e84f3dd0314c0f7b2291e5b200ac8c7c3b92560405160405180910390a4505050565b816002600082815260200190815260200160002060009054906101000a900473ffffffffffffffffffffffffffffffffffffffff1673ffffffffffffffffffffffffffffffffffffffff163373ffffffffffffffffffffffffffffffffffffffff161461056f57600080fd5b81600184815481106105845761058361167c565b5b906000526020600020906002020160010181905550505050565b3373ffffffffffffffffffffffffffffffffffffffff166002600083815260200190815260200160002060009054906101000a900473ffffffffffffffffffffffffffffffffffffffff1673ffffffffffffffffffffffffffffffffffffffff16148061066957503373ffffffffffffffffffffffffffffffffffffffff166004600083815260200190815260200160002060009054906101000a900473ffffffffffffffffffffffffffffffffffffffff1673ffffffffffffffffffffffffffffffffffffffff16145b61067257600080fd5b61067d838383610ca7565b505050565b6001604051806040016040528084815260200183815250908060018154018082558091505060019003906000526020600020906002020160009091909190915060008201518160000190805190602001906106de929190610efa565b506020820151816001015550506000600180805490506106fe91906116da565b9050336002600083815260200190815260200160002060006101000a81548173ffffffffffffffffffffffffffffffffffffffff021916908373ffffffffffffffffffffffffffffffffffffffff160217905550600360003373ffffffffffffffffffffffffffffffffffffffff1673ffffffffffffffffffffffffffffffffffffffff16815260200190815260200160002060008154809291906107a29061170e565b91905055507fdfd743ce06ae96d90e234a241335c0b4c0bf10ac2e8fb95424113576297e4b588184846040516107da93929190611757565b60405180910390a1505050565b60006002600083815260200190815260200160002060009054906101000a900473ffffffffffffffffffffffffffffffffffffffff169050919050565b60036020528060005260406000206000915090505481565b6000600360008373ffffffffffffffffffffffffffffffffffffffff1673ffffffffffffffffffffffffffffffffffffffff168152602001908152602001600020549050919050565b61088d610ad0565b61089657600080fd5b600073ffffffffffffffffffffffffffffffffffffffff1660008054906101000a900473ffffffffffffffffffffffffffffffffffffffff1673ffffffffffffffffffffffffffffffffffffffff167f8be0079c531659141344cd1fd0a4f28419497f9722a3daafe3b4186f6b6457e060405160405180910390a360008060006101000a81548173ffffffffffffffffffffffffffffffffffffffff021916908373ffffffffffffffffffffffffffffffffffffffff160217905550565b60606000600360008473ffffffffffffffffffffffffffffffffffffffff1673ffffffffffffffffffffffffffffffffffffffff1681526020019081526020016000205467ffffffffffffffff8111156109b1576109b0611210565b5b6040519080825280602002602001820160405280156109df5781602001602082028036833780820191505090505b5090506000805b600180549050811015610a9c578473ffffffffffffffffffffffffffffffffffffffff166002600083815260200190815260200160002060009054906101000a900473ffffffffffffffffffffffffffffffffffffffff1673ffffffffffffffffffffffffffffffffffffffff161415610a895780838381518110610a6e57610a6d61167c565b5b6020026020010181815250508180610a859061170e565b9250505b8080610a949061170e565b9150506109e6565b508192505050919050565b60008060009054906101000a900473ffffffffffffffffffffffffffffffffffffffff16905090565b60008060009054906101000a900473ffffffffffffffffffffffffffffffffffffffff1673ffffffffffffffffffffffffffffffffffffffff163373ffffffffffffffffffffffffffffffffffffffff1614905090565b60018181548110610b3757600080fd5b9060005260206000209060020201600091509050806000018054610b5a906117c4565b80601f0160208091040260200160405190810160405280929190818152602001828054610b86906117c4565b8015610bd35780601f10610ba857610100808354040283529160200191610bd3565b820191906000526020600020905b815481529060010190602001808311610bb657829003601f168201915b5050505050908060010154905082565b826002600082815260200190815260200160002060009054906101000a900473ffffffffffffffffffffffffffffffffffffffff1673ffffffffffffffffffffffffffffffffffffffff163373ffffffffffffffffffffffffffffffffffffffff1614610c4f57600080fd5b828260018681548110610c6557610c6461167c565b5b90600052602060002090600202016000019190610c83929190610f80565b5050505050565b610c92610ad0565b610c9b57600080fd5b610ca481610e03565b50565b600360008373ffffffffffffffffffffffffffffffffffffffff1673ffffffffffffffffffffffffffffffffffffffff1681526020019081526020016000206000815480929190610cf79061170e565b9190505550600360008473ffffffffffffffffffffffffffffffffffffffff1673ffffffffffffffffffffffffffffffffffffffff1681526020019081526020016000206000815480929190610d4c906117f6565b9190505550816002600083815260200190815260200160002060006101000a81548173ffffffffffffffffffffffffffffffffffffffff021916908373ffffffffffffffffffffffffffffffffffffffff160217905550808273ffffffffffffffffffffffffffffffffffffffff168473ffffffffffffffffffffffffffffffffffffffff167fddf252ad1be2c89b69c2b068fc378daa952ba7f163c4a11628f55a4df523b3ef60405160405180910390a4505050565b600073ffffffffffffffffffffffffffffffffffffffff168173ffffffffffffffffffffffffffffffffffffffff161415610e3d57600080fd5b8073ffffffffffffffffffffffffffffffffffffffff1660008054906101000a900473ffffffffffffffffffffffffffffffffffffffff1673ffffffffffffffffffffffffffffffffffffffff167f8be0079c531659141344cd1fd0a4f28419497f9722a3daafe3b4186f6b6457e060405160405180910390a3806000806101000a81548173ffffffffffffffffffffffffffffffffffffffff021916908373ffffffffffffffffffffffffffffffffffffffff16021790555050565b828054610f06906117c4565b90600052602060002090601f016020900481019282610f285760008555610f6f565b82601f10610f4157805160ff1916838001178555610f6f565b82800160010185558215610f6f579182015b82811115610f6e578251825591602001919060010190610f53565b5b509050610f7c9190611006565b5090565b828054610f8c906117c4565b90600052602060002090601f016020900481019282610fae5760008555610ff5565b82601f10610fc757803560ff1916838001178555610ff5565b82800160010185558215610ff5579182015b82811115610ff4578235825591602001919060010190610fd9565b5b5090506110029190611006565b5090565b5b8082111561101f576000816000905550600101611007565b5090565b6000604051905090565b600080fd5b600080fd5b6000819050919050565b61104a81611037565b811461105557600080fd5b50565b60008135905061106781611041565b92915050565b6000602082840312156110835761108261102d565b5b600061109184828501611058565b91505092915050565b600073ffffffffffffffffffffffffffffffffffffffff82169050919050565b60006110c58261109a565b9050919050565b6110d5816110ba565b82525050565b60006020820190506110f060008301846110cc565b92915050565b6110ff816110ba565b811461110a57600080fd5b50565b60008135905061111c816110f6565b92915050565b600080604083850312156111395761113861102d565b5b60006111478582860161110d565b925050602061115885828601611058565b9150509250929050565b600080604083850312156111795761117861102d565b5b600061118785828601611058565b925050602061119885828601611058565b9150509250929050565b6000806000606084860312156111bb576111ba61102d565b5b60006111c98682870161110d565b93505060206111da8682870161110d565b92505060406111eb86828701611058565b9150509250925092565b600080fd5b600080fd5b6000601f19601f8301169050919050565b7f4e487b7100000000000000000000000000000000000000000000000000000000600052604160045260246000fd5b611248826111ff565b810181811067ffffffffffffffff8211171561126757611266611210565b5b80604052505050565b600061127a611023565b9050611286828261123f565b919050565b600067ffffffffffffffff8211156112a6576112a5611210565b5b6112af826111ff565b9050602081019050919050565b82818337600083830152505050565b60006112de6112d98461128b565b611270565b9050828152602081018484840111156112fa576112f96111fa565b5b6113058482856112bc565b509392505050565b600082601f830112611322576113216111f5565b5b81356113328482602086016112cb565b91505092915050565b600080604083850312156113525761135161102d565b5b600083013567ffffffffffffffff8111156113705761136f611032565b5b61137c8582860161130d565b925050602061138d85828601611058565b9150509250929050565b6000602082840312156113ad576113ac61102d565b5b60006113bb8482850161110d565b91505092915050565b6113cd81611037565b82525050565b60006020820190506113e860008301846113c4565b92915050565b600081519050919050565b600082825260208201905092915050565b6000819050602082019050919050565b61142381611037565b82525050565b6000611435838361141a565b60208301905092915050565b6000602082019050919050565b6000611459826113ee565b61146381856113f9565b935061146e8361140a565b8060005b8381101561149f5781516114868882611429565b975061149183611441565b925050600181019050611472565b5085935050505092915050565b600060208201905081810360008301526114c6818461144e565b905092915050565b60008115159050919050565b6114e3816114ce565b82525050565b60006020820190506114fe60008301846114da565b92915050565b600081519050919050565b600082825260208201905092915050565b60005b8381101561153e578082015181840152602081019050611523565b8381111561154d576000848401525b50505050565b600061155e82611504565b611568818561150f565b9350611578818560208601611520565b611581816111ff565b840191505092915050565b600060408201905081810360008301526115a68185611553565b90506115b560208301846113c4565b9392505050565b600080fd5b600080fd5b60008083601f8401126115dc576115db6111f5565b5b8235905067ffffffffffffffff8111156115f9576115f86115bc565b5b602083019150836001820283011115611615576116146115c1565b5b9250929050565b6000806000604084860312156116355761163461102d565b5b600061164386828701611058565b935050602084013567ffffffffffffffff81111561166457611663611032565b5b611670868287016115c6565b92509250509250925092565b7f4e487b7100000000000000000000000000000000000000000000000000000000600052603260045260246000fd5b7f4e487b7100000000000000000000000000000000000000000000000000000000600052601160045260246000fd5b60006116e582611037565b91506116f083611037565b925082821015611703576117026116ab565b5b828203905092915050565b600061171982611037565b91507fffffffffffffffffffffffffffffffffffffffffffffffffffffffffffffffff82141561174c5761174b6116ab565b5b600182019050919050565b600060608201905061176c60008301866113c4565b818103602083015261177e8185611553565b905061178d60408301846113c4565b949350505050565b7f4e487b7100000000000000000000000000000000000000000000000000000000600052602260045260246000fd5b600060028204905060018216806117dc57607f821691505b602082108114156117f0576117ef611795565b5b50919050565b600061180182611037565b91506000821415611815576118146116ab565b5b60018203905091905056fea26469706673582212209ea72496c77184dfdbee9430d643c555bd2253463736c496666a4ec1abf19d0564736f6c634300080b0033",
  "immutableReferences": {},
  "source": "// SPDX-License-Identifier: MIT\npragma solidity >=0.7.0 <0.9.0;\n\nimport \"./documentmodify.sol\";\nimport \"./erc721.sol\";\n\ncontract DocumentOwnership is DocumentModify, ERC721 {\n\n  mapping (uint => address) documentApprovals;\n\n  function balanceOf(address _owner) external view override returns (uint256) {\n    return ownerDocumentCount[_owner];\n  }\n\n  function ownerOf(uint256 _tokenId) external view override returns (address) {\n    return documentToOwner[_tokenId];\n  }\n\n  function _transfer(address _from, address _to, uint256 _tokenId) private {\n    ownerDocumentCount[_to]++;\n    ownerDocumentCount[_from]--;\n    documentToOwner[_tokenId] = _to;\n    emit Transfer(_from, _to, _tokenId);\n  }\n\n  function transferFrom(address _from, address _to, uint256 _tokenId) external override {\n    require (documentToOwner[_tokenId] == msg.sender || documentApprovals[_tokenId] == msg.sender);\n    _transfer(_from, _to, _tokenId);\n  }\n\n  function approve(address _approved, uint256 _tokenId) external payable override onlyOwnerOf(_tokenId) {\n    documentApprovals[_tokenId] = _approved;\n    emit Approval(msg.sender, _approved, _tokenId);\n  }\n\n}\n",
  "sourcePath": "/Users/JordanSun/Desktop/documentHandling v2/src/contracts/documentownership.sol",
  "compiler": {
    "name": "solc",
    "version": "0.8.11+commit.d7f03943.Emscripten.clang"
  },
  "schemaVersion": "3.4.1",
  "updatedAt": "2021-12-22T06:24:38.898Z",
  "devdoc": {
    "kind": "dev",
    "methods": {
      "isOwner()": {
        "returns": {
          "_0": "true if `msg.sender` is the owner of the contract."
        }
      },
      "owner()": {
        "returns": {
          "_0": "the address of the owner."
        }
      },
      "renounceOwnership()": {
        "details": "Allows the current owner to relinquish control of the contract."
      },
      "transferOwnership(address)": {
        "details": "Allows the current owner to transfer control of the contract to a newOwner.",
        "params": {
          "newOwner": "The address to transfer ownership to."
        }
      }
    },
    "version": 1
  },
  "userdoc": {
    "kind": "user",
    "methods": {
      "renounceOwnership()": {
        "notice": "Renouncing to ownership will leave the contract without an owner. It will not be possible to call the functions with the `onlyOwner` modifier anymore."
      }
    },
    "version": 1
  }
}