{
  "contractName": "DocumentCreation",
  "abi": [
    {
      "anonymous": false,
      "inputs": [
        {
          "indexed": false,
          "internalType": "uint256",
          "name": "documentId",
          "type": "uint256"
        },
        {
          "indexed": false,
          "internalType": "string",
          "name": "name",
          "type": "string"
        },
        {
          "indexed": false,
          "internalType": "uint256",
          "name": "age",
          "type": "uint256"
        }
      ],
      "name": "NewDocument",
      "type": "event"
    },
    {
      "anonymous": false,
      "inputs": [
        {
          "indexed": true,
          "internalType": "address",
          "name": "previousOwner",
          "type": "address"
        },
        {
          "indexed": true,
          "internalType": "address",
          "name": "newOwner",
          "type": "address"
        }
      ],
      "name": "OwnershipTransferred",
      "type": "event"
    },
    {
      "inputs": [
        {
          "internalType": "uint256",
          "name": "",
          "type": "uint256"
        }
      ],
      "name": "documentToOwner",
      "outputs": [
        {
          "internalType": "address",
          "name": "",
          "type": "address"
        }
      ],
      "stateMutability": "view",
      "type": "function"
    },
    {
      "inputs": [
        {
          "internalType": "uint256",
          "name": "",
          "type": "uint256"
        }
      ],
      "name": "documents",
      "outputs": [
        {
          "internalType": "string",
          "name": "name",
          "type": "string"
        },
        {
          "internalType": "uint256",
          "name": "age",
          "type": "uint256"
        }
      ],
      "stateMutability": "view",
      "type": "function"
    },
    {
      "inputs": [],
      "name": "isOwner",
      "outputs": [
        {
          "internalType": "bool",
          "name": "",
          "type": "bool"
        }
      ],
      "stateMutability": "view",
      "type": "function"
    },
    {
      "inputs": [],
      "name": "owner",
      "outputs": [
        {
          "internalType": "address",
          "name": "",
          "type": "address"
        }
      ],
      "stateMutability": "view",
      "type": "function"
    },
    {
      "inputs": [
        {
          "internalType": "address",
          "name": "",
          "type": "address"
        }
      ],
      "name": "ownerDocumentCount",
      "outputs": [
        {
          "internalType": "uint256",
          "name": "",
          "type": "uint256"
        }
      ],
      "stateMutability": "view",
      "type": "function"
    },
    {
      "inputs": [],
      "name": "renounceOwnership",
      "outputs": [],
      "stateMutability": "nonpayable",
      "type": "function"
    },
    {
      "inputs": [
        {
          "internalType": "address",
          "name": "newOwner",
          "type": "address"
        }
      ],
      "name": "transferOwnership",
      "outputs": [],
      "stateMutability": "nonpayable",
      "type": "function"
    },
    {
      "inputs": [
        {
          "internalType": "string",
          "name": "_name",
          "type": "string"
        },
        {
          "internalType": "uint256",
          "name": "_age",
          "type": "uint256"
        }
      ],
      "name": "createDocument",
      "outputs": [],
      "stateMutability": "nonpayable",
      "type": "function"
    }
  ],
  "bytecode": "0x608060405234801561001057600080fd5b50336000806101000a81548173ffffffffffffffffffffffffffffffffffffffff021916908373ffffffffffffffffffffffffffffffffffffffff16021790555060008054906101000a900473ffffffffffffffffffffffffffffffffffffffff1673ffffffffffffffffffffffffffffffffffffffff16600073ffffffffffffffffffffffffffffffffffffffff167f8be0079c531659141344cd1fd0a4f28419497f9722a3daafe3b4186f6b6457e060405160405180910390a3610c75806100db6000396000f3fe608060405234801561001057600080fd5b50600436106100885760003560e01c80638da5cb5b1161005b5780638da5cb5b146101135780638f32d59b14610131578063c2ed2b051461014f578063f2fde38b1461018057610088565b8063076432b11461008d5780635d246cac146100bd57806368843384146100d9578063715018a614610109575b600080fd5b6100a760048036038101906100a29190610758565b61019c565b6040516100b491906107c6565b60405180910390f35b6100d760048036038101906100d29190610927565b6101cf565b005b6100f360048036038101906100ee91906109af565b610334565b60405161010091906109eb565b60405180910390f35b61011161034c565b005b61011b61041b565b60405161012891906107c6565b60405180910390f35b610139610444565b6040516101469190610a21565b60405180910390f35b61016960048036038101906101649190610758565b61049b565b604051610177929190610ac4565b60405180910390f35b61019a600480360381019061019591906109af565b610557565b005b60026020528060005260406000206000915054906101000a900473ffffffffffffffffffffffffffffffffffffffff1681565b60016040518060400160405280848152602001838152509080600181540180825580915050600190039060005260206000209060020201600090919091909150600082015181600001908051906020019061022b92919061066b565b5060208201518160010155505060006001808054905061024b9190610b23565b9050336002600083815260200190815260200160002060006101000a81548173ffffffffffffffffffffffffffffffffffffffff021916908373ffffffffffffffffffffffffffffffffffffffff160217905550600360003373ffffffffffffffffffffffffffffffffffffffff1673ffffffffffffffffffffffffffffffffffffffff16815260200190815260200160002060008154809291906102ef90610b57565b91905055507fdfd743ce06ae96d90e234a241335c0b4c0bf10ac2e8fb95424113576297e4b5881848460405161032793929190610ba0565b60405180910390a1505050565b60036020528060005260406000206000915090505481565b610354610444565b61035d57600080fd5b600073ffffffffffffffffffffffffffffffffffffffff1660008054906101000a900473ffffffffffffffffffffffffffffffffffffffff1673ffffffffffffffffffffffffffffffffffffffff167f8be0079c531659141344cd1fd0a4f28419497f9722a3daafe3b4186f6b6457e060405160405180910390a360008060006101000a81548173ffffffffffffffffffffffffffffffffffffffff021916908373ffffffffffffffffffffffffffffffffffffffff160217905550565b60008060009054906101000a900473ffffffffffffffffffffffffffffffffffffffff16905090565b60008060009054906101000a900473ffffffffffffffffffffffffffffffffffffffff1673ffffffffffffffffffffffffffffffffffffffff163373ffffffffffffffffffffffffffffffffffffffff1614905090565b600181815481106104ab57600080fd5b90600052602060002090600202016000915090508060000180546104ce90610c0d565b80601f01602080910402602001604051908101604052809291908181526020018280546104fa90610c0d565b80156105475780601f1061051c57610100808354040283529160200191610547565b820191906000526020600020905b81548152906001019060200180831161052a57829003601f168201915b5050505050908060010154905082565b61055f610444565b61056857600080fd5b61057181610574565b50565b600073ffffffffffffffffffffffffffffffffffffffff168173ffffffffffffffffffffffffffffffffffffffff1614156105ae57600080fd5b8073ffffffffffffffffffffffffffffffffffffffff1660008054906101000a900473ffffffffffffffffffffffffffffffffffffffff1673ffffffffffffffffffffffffffffffffffffffff167f8be0079c531659141344cd1fd0a4f28419497f9722a3daafe3b4186f6b6457e060405160405180910390a3806000806101000a81548173ffffffffffffffffffffffffffffffffffffffff021916908373ffffffffffffffffffffffffffffffffffffffff16021790555050565b82805461067790610c0d565b90600052602060002090601f01602090048101928261069957600085556106e0565b82601f106106b257805160ff19168380011785556106e0565b828001600101855582156106e0579182015b828111156106df5782518255916020019190600101906106c4565b5b5090506106ed91906106f1565b5090565b5b8082111561070a5760008160009055506001016106f2565b5090565b6000604051905090565b600080fd5b600080fd5b6000819050919050565b61073581610722565b811461074057600080fd5b50565b6000813590506107528161072c565b92915050565b60006020828403121561076e5761076d610718565b5b600061077c84828501610743565b91505092915050565b600073ffffffffffffffffffffffffffffffffffffffff82169050919050565b60006107b082610785565b9050919050565b6107c0816107a5565b82525050565b60006020820190506107db60008301846107b7565b92915050565b600080fd5b600080fd5b6000601f19601f8301169050919050565b7f4e487b7100000000000000000000000000000000000000000000000000000000600052604160045260246000fd5b610834826107eb565b810181811067ffffffffffffffff82111715610853576108526107fc565b5b80604052505050565b600061086661070e565b9050610872828261082b565b919050565b600067ffffffffffffffff821115610892576108916107fc565b5b61089b826107eb565b9050602081019050919050565b82818337600083830152505050565b60006108ca6108c584610877565b61085c565b9050828152602081018484840111156108e6576108e56107e6565b5b6108f18482856108a8565b509392505050565b600082601f83011261090e5761090d6107e1565b5b813561091e8482602086016108b7565b91505092915050565b6000806040838503121561093e5761093d610718565b5b600083013567ffffffffffffffff81111561095c5761095b61071d565b5b610968858286016108f9565b925050602061097985828601610743565b9150509250929050565b61098c816107a5565b811461099757600080fd5b50565b6000813590506109a981610983565b92915050565b6000602082840312156109c5576109c4610718565b5b60006109d38482850161099a565b91505092915050565b6109e581610722565b82525050565b6000602082019050610a0060008301846109dc565b92915050565b60008115159050919050565b610a1b81610a06565b82525050565b6000602082019050610a366000830184610a12565b92915050565b600081519050919050565b600082825260208201905092915050565b60005b83811015610a76578082015181840152602081019050610a5b565b83811115610a85576000848401525b50505050565b6000610a9682610a3c565b610aa08185610a47565b9350610ab0818560208601610a58565b610ab9816107eb565b840191505092915050565b60006040820190508181036000830152610ade8185610a8b565b9050610aed60208301846109dc565b9392505050565b7f4e487b7100000000000000000000000000000000000000000000000000000000600052601160045260246000fd5b6000610b2e82610722565b9150610b3983610722565b925082821015610b4c57610b4b610af4565b5b828203905092915050565b6000610b6282610722565b91507fffffffffffffffffffffffffffffffffffffffffffffffffffffffffffffffff821415610b9557610b94610af4565b5b600182019050919050565b6000606082019050610bb560008301866109dc565b8181036020830152610bc78185610a8b565b9050610bd660408301846109dc565b949350505050565b7f4e487b7100000000000000000000000000000000000000000000000000000000600052602260045260246000fd5b60006002820490506001821680610c2557607f821691505b60208210811415610c3957610c38610bde565b5b5091905056fea2646970667358221220b1b4df2104cd0ef9cd4596751792b79854e9b9f78cb869c91880489a6476624464736f6c634300080b0033",
  "immutableReferences": {},
  "source": "// SPDX-License-Identifier: MIT\npragma solidity >=0.7.0 <0.9.0;\n\nimport \"./ownable.sol\";\n\ncontract DocumentCreation is Ownable {\n\n  event NewDocument(uint documentId, string name, uint age);\n\n  struct Document {\n    string name;\n    uint age;\n  }\n\n  Document[] public documents;\n\n  mapping (uint => address) public documentToOwner;\n  mapping (address => uint) public ownerDocumentCount;\n\n  function createDocument(string memory _name, uint _age) external {\n    documents.push(Document(_name, _age));\n    uint id = documents.length - 1;\n    documentToOwner[id] = msg.sender;\n    ownerDocumentCount[msg.sender]++;\n    emit NewDocument(id, _name, _age);\n  }\n}\n",
  "sourcePath": "/Users/JordanSun/Desktop/documentHandling v2/src/contracts/documentcreation.sol",
  "compiler": {
    "name": "solc",
    "version": "0.8.11+commit.d7f03943.Emscripten.clang"
  },
  "schemaVersion": "3.4.1",
  "updatedAt": "2021-12-22T06:24:38.851Z",
  "devdoc": {
    "kind": "dev",
    "methods": {
      "isOwner()": {
        "returns": {
          "_0": "true if `msg.sender` is the owner of the contract."
        }
      },
      "owner()": {
        "returns": {
          "_0": "the address of the owner."
        }
      },
      "renounceOwnership()": {
        "details": "Allows the current owner to relinquish control of the contract."
      },
      "transferOwnership(address)": {
        "details": "Allows the current owner to transfer control of the contract to a newOwner.",
        "params": {
          "newOwner": "The address to transfer ownership to."
        }
      }
    },
    "version": 1
  },
  "userdoc": {
    "kind": "user",
    "methods": {
      "renounceOwnership()": {
        "notice": "Renouncing to ownership will leave the contract without an owner. It will not be possible to call the functions with the `onlyOwner` modifier anymore."
      }
    },
    "version": 1
  }
}