{
  "contractName": "DocumentModify",
  "abi": [
    {
      "anonymous": false,
      "inputs": [
        {
          "indexed": false,
          "internalType": "uint256",
          "name": "documentId",
          "type": "uint256"
        },
        {
          "indexed": false,
          "internalType": "string",
          "name": "name",
          "type": "string"
        },
        {
          "indexed": false,
          "internalType": "uint256",
          "name": "age",
          "type": "uint256"
        }
      ],
      "name": "NewDocument",
      "type": "event"
    },
    {
      "anonymous": false,
      "inputs": [
        {
          "indexed": true,
          "internalType": "address",
          "name": "previousOwner",
          "type": "address"
        },
        {
          "indexed": true,
          "internalType": "address",
          "name": "newOwner",
          "type": "address"
        }
      ],
      "name": "OwnershipTransferred",
      "type": "event"
    },
    {
      "inputs": [
        {
          "internalType": "string",
          "name": "_name",
          "type": "string"
        },
        {
          "internalType": "uint256",
          "name": "_age",
          "type": "uint256"
        }
      ],
      "name": "createDocument",
      "outputs": [],
      "stateMutability": "nonpayable",
      "type": "function"
    },
    {
      "inputs": [
        {
          "internalType": "uint256",
          "name": "",
          "type": "uint256"
        }
      ],
      "name": "documentToOwner",
      "outputs": [
        {
          "internalType": "address",
          "name": "",
          "type": "address"
        }
      ],
      "stateMutability": "view",
      "type": "function"
    },
    {
      "inputs": [
        {
          "internalType": "uint256",
          "name": "",
          "type": "uint256"
        }
      ],
      "name": "documents",
      "outputs": [
        {
          "internalType": "string",
          "name": "name",
          "type": "string"
        },
        {
          "internalType": "uint256",
          "name": "age",
          "type": "uint256"
        }
      ],
      "stateMutability": "view",
      "type": "function"
    },
    {
      "inputs": [
        {
          "internalType": "address",
          "name": "_owner",
          "type": "address"
        }
      ],
      "name": "getDocumentsByOwner",
      "outputs": [
        {
          "internalType": "uint256[]",
          "name": "",
          "type": "uint256[]"
        }
      ],
      "stateMutability": "view",
      "type": "function"
    },
    {
      "inputs": [],
      "name": "isOwner",
      "outputs": [
        {
          "internalType": "bool",
          "name": "",
          "type": "bool"
        }
      ],
      "stateMutability": "view",
      "type": "function"
    },
    {
      "inputs": [],
      "name": "owner",
      "outputs": [
        {
          "internalType": "address",
          "name": "",
          "type": "address"
        }
      ],
      "stateMutability": "view",
      "type": "function"
    },
    {
      "inputs": [
        {
          "internalType": "address",
          "name": "",
          "type": "address"
        }
      ],
      "name": "ownerDocumentCount",
      "outputs": [
        {
          "internalType": "uint256",
          "name": "",
          "type": "uint256"
        }
      ],
      "stateMutability": "view",
      "type": "function"
    },
    {
      "inputs": [],
      "name": "renounceOwnership",
      "outputs": [],
      "stateMutability": "nonpayable",
      "type": "function"
    },
    {
      "inputs": [
        {
          "internalType": "address",
          "name": "newOwner",
          "type": "address"
        }
      ],
      "name": "transferOwnership",
      "outputs": [],
      "stateMutability": "nonpayable",
      "type": "function"
    },
    {
      "inputs": [
        {
          "internalType": "uint256",
          "name": "_documentId",
          "type": "uint256"
        },
        {
          "internalType": "string",
          "name": "_newName",
          "type": "string"
        }
      ],
      "name": "changeName",
      "outputs": [],
      "stateMutability": "nonpayable",
      "type": "function"
    },
    {
      "inputs": [
        {
          "internalType": "uint256",
          "name": "_documentId",
          "type": "uint256"
        },
        {
          "internalType": "uint256",
          "name": "_newAge",
          "type": "uint256"
        }
      ],
      "name": "changeAge",
      "outputs": [],
      "stateMutability": "nonpayable",
      "type": "function"
    }
  ],
  "bytecode": "0x608060405234801561001057600080fd5b50336000806101000a81548173ffffffffffffffffffffffffffffffffffffffff021916908373ffffffffffffffffffffffffffffffffffffffff16021790555060008054906101000a900473ffffffffffffffffffffffffffffffffffffffff1673ffffffffffffffffffffffffffffffffffffffff16600073ffffffffffffffffffffffffffffffffffffffff167f8be0079c531659141344cd1fd0a4f28419497f9722a3daafe3b4186f6b6457e060405160405180910390a3611228806100db6000396000f3fe608060405234801561001057600080fd5b50600436106100a95760003560e01c80637ddfc7d4116100715780637ddfc7d4146101505780638da5cb5b146101805780638f32d59b1461019e578063c2ed2b05146101bc578063c39cbef1146101ed578063f2fde38b14610209576100a9565b8063076432b1146100ae57806320de6831146100de5780635d246cac146100fa5780636884338414610116578063715018a614610146575b600080fd5b6100c860048036038101906100c39190610afc565b610225565b6040516100d59190610b6a565b60405180910390f35b6100f860048036038101906100f39190610b85565b610258565b005b610114600480360381019061010f9190610d0b565b6102f3565b005b610130600480360381019061012b9190610d93565b610458565b60405161013d9190610dcf565b60405180910390f35b61014e610470565b005b61016a60048036038101906101659190610d93565b61053f565b6040516101779190610ea8565b60405180910390f35b610188610692565b6040516101959190610b6a565b60405180910390f35b6101a66106bb565b6040516101b39190610ee5565b60405180910390f35b6101d660048036038101906101d19190610afc565b610712565b6040516101e4929190610f88565b60405180910390f35b61020760048036038101906102029190611018565b6107ce565b005b610223600480360381019061021e9190610d93565b610875565b005b60026020528060005260406000206000915054906101000a900473ffffffffffffffffffffffffffffffffffffffff1681565b816002600082815260200190815260200160002060009054906101000a900473ffffffffffffffffffffffffffffffffffffffff1673ffffffffffffffffffffffffffffffffffffffff163373ffffffffffffffffffffffffffffffffffffffff16146102c457600080fd5b81600184815481106102d9576102d8611078565b5b906000526020600020906002020160010181905550505050565b60016040518060400160405280848152602001838152509080600181540180825580915050600190039060005260206000209060020201600090919091909150600082015181600001908051906020019061034f929190610989565b5060208201518160010155505060006001808054905061036f91906110d6565b9050336002600083815260200190815260200160002060006101000a81548173ffffffffffffffffffffffffffffffffffffffff021916908373ffffffffffffffffffffffffffffffffffffffff160217905550600360003373ffffffffffffffffffffffffffffffffffffffff1673ffffffffffffffffffffffffffffffffffffffff16815260200190815260200160002060008154809291906104139061110a565b91905055507fdfd743ce06ae96d90e234a241335c0b4c0bf10ac2e8fb95424113576297e4b5881848460405161044b93929190611153565b60405180910390a1505050565b60036020528060005260406000206000915090505481565b6104786106bb565b61048157600080fd5b600073ffffffffffffffffffffffffffffffffffffffff1660008054906101000a900473ffffffffffffffffffffffffffffffffffffffff1673ffffffffffffffffffffffffffffffffffffffff167f8be0079c531659141344cd1fd0a4f28419497f9722a3daafe3b4186f6b6457e060405160405180910390a360008060006101000a81548173ffffffffffffffffffffffffffffffffffffffff021916908373ffffffffffffffffffffffffffffffffffffffff160217905550565b60606000600360008473ffffffffffffffffffffffffffffffffffffffff1673ffffffffffffffffffffffffffffffffffffffff1681526020019081526020016000205467ffffffffffffffff81111561059c5761059b610be0565b5b6040519080825280602002602001820160405280156105ca5781602001602082028036833780820191505090505b5090506000805b600180549050811015610687578473ffffffffffffffffffffffffffffffffffffffff166002600083815260200190815260200160002060009054906101000a900473ffffffffffffffffffffffffffffffffffffffff1673ffffffffffffffffffffffffffffffffffffffff161415610674578083838151811061065957610658611078565b5b60200260200101818152505081806106709061110a565b9250505b808061067f9061110a565b9150506105d1565b508192505050919050565b60008060009054906101000a900473ffffffffffffffffffffffffffffffffffffffff16905090565b60008060009054906101000a900473ffffffffffffffffffffffffffffffffffffffff1673ffffffffffffffffffffffffffffffffffffffff163373ffffffffffffffffffffffffffffffffffffffff1614905090565b6001818154811061072257600080fd5b9060005260206000209060020201600091509050806000018054610745906111c0565b80601f0160208091040260200160405190810160405280929190818152602001828054610771906111c0565b80156107be5780601f10610793576101008083540402835291602001916107be565b820191906000526020600020905b8154815290600101906020018083116107a157829003601f168201915b5050505050908060010154905082565b826002600082815260200190815260200160002060009054906101000a900473ffffffffffffffffffffffffffffffffffffffff1673ffffffffffffffffffffffffffffffffffffffff163373ffffffffffffffffffffffffffffffffffffffff161461083a57600080fd5b8282600186815481106108505761084f611078565b5b9060005260206000209060020201600001919061086e929190610a0f565b5050505050565b61087d6106bb565b61088657600080fd5b61088f81610892565b50565b600073ffffffffffffffffffffffffffffffffffffffff168173ffffffffffffffffffffffffffffffffffffffff1614156108cc57600080fd5b8073ffffffffffffffffffffffffffffffffffffffff1660008054906101000a900473ffffffffffffffffffffffffffffffffffffffff1673ffffffffffffffffffffffffffffffffffffffff167f8be0079c531659141344cd1fd0a4f28419497f9722a3daafe3b4186f6b6457e060405160405180910390a3806000806101000a81548173ffffffffffffffffffffffffffffffffffffffff021916908373ffffffffffffffffffffffffffffffffffffffff16021790555050565b828054610995906111c0565b90600052602060002090601f0160209004810192826109b757600085556109fe565b82601f106109d057805160ff19168380011785556109fe565b828001600101855582156109fe579182015b828111156109fd5782518255916020019190600101906109e2565b5b509050610a0b9190610a95565b5090565b828054610a1b906111c0565b90600052602060002090601f016020900481019282610a3d5760008555610a84565b82601f10610a5657803560ff1916838001178555610a84565b82800160010185558215610a84579182015b82811115610a83578235825591602001919060010190610a68565b5b509050610a919190610a95565b5090565b5b80821115610aae576000816000905550600101610a96565b5090565b6000604051905090565b600080fd5b600080fd5b6000819050919050565b610ad981610ac6565b8114610ae457600080fd5b50565b600081359050610af681610ad0565b92915050565b600060208284031215610b1257610b11610abc565b5b6000610b2084828501610ae7565b91505092915050565b600073ffffffffffffffffffffffffffffffffffffffff82169050919050565b6000610b5482610b29565b9050919050565b610b6481610b49565b82525050565b6000602082019050610b7f6000830184610b5b565b92915050565b60008060408385031215610b9c57610b9b610abc565b5b6000610baa85828601610ae7565b9250506020610bbb85828601610ae7565b9150509250929050565b600080fd5b600080fd5b6000601f19601f8301169050919050565b7f4e487b7100000000000000000000000000000000000000000000000000000000600052604160045260246000fd5b610c1882610bcf565b810181811067ffffffffffffffff82111715610c3757610c36610be0565b5b80604052505050565b6000610c4a610ab2565b9050610c568282610c0f565b919050565b600067ffffffffffffffff821115610c7657610c75610be0565b5b610c7f82610bcf565b9050602081019050919050565b82818337600083830152505050565b6000610cae610ca984610c5b565b610c40565b905082815260208101848484011115610cca57610cc9610bca565b5b610cd5848285610c8c565b509392505050565b600082601f830112610cf257610cf1610bc5565b5b8135610d02848260208601610c9b565b91505092915050565b60008060408385031215610d2257610d21610abc565b5b600083013567ffffffffffffffff811115610d4057610d3f610ac1565b5b610d4c85828601610cdd565b9250506020610d5d85828601610ae7565b9150509250929050565b610d7081610b49565b8114610d7b57600080fd5b50565b600081359050610d8d81610d67565b92915050565b600060208284031215610da957610da8610abc565b5b6000610db784828501610d7e565b91505092915050565b610dc981610ac6565b82525050565b6000602082019050610de46000830184610dc0565b92915050565b600081519050919050565b600082825260208201905092915050565b6000819050602082019050919050565b610e1f81610ac6565b82525050565b6000610e318383610e16565b60208301905092915050565b6000602082019050919050565b6000610e5582610dea565b610e5f8185610df5565b9350610e6a83610e06565b8060005b83811015610e9b578151610e828882610e25565b9750610e8d83610e3d565b925050600181019050610e6e565b5085935050505092915050565b60006020820190508181036000830152610ec28184610e4a565b905092915050565b60008115159050919050565b610edf81610eca565b82525050565b6000602082019050610efa6000830184610ed6565b92915050565b600081519050919050565b600082825260208201905092915050565b60005b83811015610f3a578082015181840152602081019050610f1f565b83811115610f49576000848401525b50505050565b6000610f5a82610f00565b610f648185610f0b565b9350610f74818560208601610f1c565b610f7d81610bcf565b840191505092915050565b60006040820190508181036000830152610fa28185610f4f565b9050610fb16020830184610dc0565b9392505050565b600080fd5b600080fd5b60008083601f840112610fd857610fd7610bc5565b5b8235905067ffffffffffffffff811115610ff557610ff4610fb8565b5b60208301915083600182028301111561101157611010610fbd565b5b9250929050565b60008060006040848603121561103157611030610abc565b5b600061103f86828701610ae7565b935050602084013567ffffffffffffffff8111156110605761105f610ac1565b5b61106c86828701610fc2565b92509250509250925092565b7f4e487b7100000000000000000000000000000000000000000000000000000000600052603260045260246000fd5b7f4e487b7100000000000000000000000000000000000000000000000000000000600052601160045260246000fd5b60006110e182610ac6565b91506110ec83610ac6565b9250828210156110ff576110fe6110a7565b5b828203905092915050565b600061111582610ac6565b91507fffffffffffffffffffffffffffffffffffffffffffffffffffffffffffffffff821415611148576111476110a7565b5b600182019050919050565b60006060820190506111686000830186610dc0565b818103602083015261117a8185610f4f565b90506111896040830184610dc0565b949350505050565b7f4e487b7100000000000000000000000000000000000000000000000000000000600052602260045260246000fd5b600060028204905060018216806111d857607f821691505b602082108114156111ec576111eb611191565b5b5091905056fea2646970667358221220bc5a677627d89f32ae31e5ea67e52a815033e6fbf5dfca8cb674491db9350bc164736f6c634300080b0033",
  "immutableReferences": {},
  "source": "// SPDX-License-Identifier: MIT\npragma solidity >=0.7.0 <0.9.0;\n\nimport \"./documenthelper.sol\";\n\ncontract DocumentModify is DocumentHelper {\n  \n  modifier onlyOwnerOf(uint _documentId) {\n    require(msg.sender == documentToOwner[_documentId]);\n    _;\n  }\n\n  function changeName(uint _documentId, string calldata _newName) external onlyOwnerOf(_documentId) {\n    documents[_documentId].name = _newName;\n  }\n\n  function changeAge(uint _documentId, uint _newAge) external onlyOwnerOf(_documentId) {\n    documents[_documentId].age = _newAge;\n  }\n  \n\n}\n",
  "sourcePath": "/Users/JordanSun/Desktop/documentHandling v2/src/contracts/documentmodify.sol",
  "compiler": {
    "name": "solc",
    "version": "0.8.11+commit.d7f03943.Emscripten.clang"
  },
  "schemaVersion": "3.4.1",
  "updatedAt": "2021-12-22T06:24:38.893Z",
  "devdoc": {
    "kind": "dev",
    "methods": {
      "isOwner()": {
        "returns": {
          "_0": "true if `msg.sender` is the owner of the contract."
        }
      },
      "owner()": {
        "returns": {
          "_0": "the address of the owner."
        }
      },
      "renounceOwnership()": {
        "details": "Allows the current owner to relinquish control of the contract."
      },
      "transferOwnership(address)": {
        "details": "Allows the current owner to transfer control of the contract to a newOwner.",
        "params": {
          "newOwner": "The address to transfer ownership to."
        }
      }
    },
    "version": 1
  },
  "userdoc": {
    "kind": "user",
    "methods": {
      "renounceOwnership()": {
        "notice": "Renouncing to ownership will leave the contract without an owner. It will not be possible to call the functions with the `onlyOwner` modifier anymore."
      }
    },
    "version": 1
  }
}