{
  "contractName": "DocumentHelper",
  "abi": [
    {
      "anonymous": false,
      "inputs": [
        {
          "indexed": false,
          "internalType": "uint256",
          "name": "documentId",
          "type": "uint256"
        },
        {
          "indexed": false,
          "internalType": "string",
          "name": "name",
          "type": "string"
        },
        {
          "indexed": false,
          "internalType": "uint256",
          "name": "age",
          "type": "uint256"
        }
      ],
      "name": "NewDocument",
      "type": "event"
    },
    {
      "anonymous": false,
      "inputs": [
        {
          "indexed": true,
          "internalType": "address",
          "name": "previousOwner",
          "type": "address"
        },
        {
          "indexed": true,
          "internalType": "address",
          "name": "newOwner",
          "type": "address"
        }
      ],
      "name": "OwnershipTransferred",
      "type": "event"
    },
    {
      "inputs": [
        {
          "internalType": "string",
          "name": "_name",
          "type": "string"
        },
        {
          "internalType": "uint256",
          "name": "_age",
          "type": "uint256"
        }
      ],
      "name": "createDocument",
      "outputs": [],
      "stateMutability": "nonpayable",
      "type": "function"
    },
    {
      "inputs": [
        {
          "internalType": "uint256",
          "name": "",
          "type": "uint256"
        }
      ],
      "name": "documentToOwner",
      "outputs": [
        {
          "internalType": "address",
          "name": "",
          "type": "address"
        }
      ],
      "stateMutability": "view",
      "type": "function"
    },
    {
      "inputs": [
        {
          "internalType": "uint256",
          "name": "",
          "type": "uint256"
        }
      ],
      "name": "documents",
      "outputs": [
        {
          "internalType": "string",
          "name": "name",
          "type": "string"
        },
        {
          "internalType": "uint256",
          "name": "age",
          "type": "uint256"
        }
      ],
      "stateMutability": "view",
      "type": "function"
    },
    {
      "inputs": [],
      "name": "isOwner",
      "outputs": [
        {
          "internalType": "bool",
          "name": "",
          "type": "bool"
        }
      ],
      "stateMutability": "view",
      "type": "function"
    },
    {
      "inputs": [],
      "name": "owner",
      "outputs": [
        {
          "internalType": "address",
          "name": "",
          "type": "address"
        }
      ],
      "stateMutability": "view",
      "type": "function"
    },
    {
      "inputs": [
        {
          "internalType": "address",
          "name": "",
          "type": "address"
        }
      ],
      "name": "ownerDocumentCount",
      "outputs": [
        {
          "internalType": "uint256",
          "name": "",
          "type": "uint256"
        }
      ],
      "stateMutability": "view",
      "type": "function"
    },
    {
      "inputs": [],
      "name": "renounceOwnership",
      "outputs": [],
      "stateMutability": "nonpayable",
      "type": "function"
    },
    {
      "inputs": [
        {
          "internalType": "address",
          "name": "newOwner",
          "type": "address"
        }
      ],
      "name": "transferOwnership",
      "outputs": [],
      "stateMutability": "nonpayable",
      "type": "function"
    },
    {
      "inputs": [
        {
          "internalType": "address",
          "name": "_owner",
          "type": "address"
        }
      ],
      "name": "getDocumentsByOwner",
      "outputs": [
        {
          "internalType": "uint256[]",
          "name": "",
          "type": "uint256[]"
        }
      ],
      "stateMutability": "view",
      "type": "function"
    }
  ],
  "bytecode": "0x608060405234801561001057600080fd5b50336000806101000a81548173ffffffffffffffffffffffffffffffffffffffff021916908373ffffffffffffffffffffffffffffffffffffffff16021790555060008054906101000a900473ffffffffffffffffffffffffffffffffffffffff1673ffffffffffffffffffffffffffffffffffffffff16600073ffffffffffffffffffffffffffffffffffffffff167f8be0079c531659141344cd1fd0a4f28419497f9722a3daafe3b4186f6b6457e060405160405180910390a3610f12806100db6000396000f3fe608060405234801561001057600080fd5b50600436106100935760003560e01c80637ddfc7d4116100665780637ddfc7d41461011e5780638da5cb5b1461014e5780638f32d59b1461016c578063c2ed2b051461018a578063f2fde38b146101bb57610093565b8063076432b1146100985780635d246cac146100c857806368843384146100e4578063715018a614610114575b600080fd5b6100b260048036038101906100ad91906108e6565b6101d7565b6040516100bf9190610954565b60405180910390f35b6100e260048036038101906100dd9190610ab5565b61020a565b005b6100fe60048036038101906100f99190610b3d565b61036f565b60405161010b9190610b79565b60405180910390f35b61011c610387565b005b61013860048036038101906101339190610b3d565b610456565b6040516101459190610c52565b60405180910390f35b6101566105a9565b6040516101639190610954565b60405180910390f35b6101746105d2565b6040516101819190610c8f565b60405180910390f35b6101a4600480360381019061019f91906108e6565b610629565b6040516101b2929190610d32565b60405180910390f35b6101d560048036038101906101d09190610b3d565b6106e5565b005b60026020528060005260406000206000915054906101000a900473ffffffffffffffffffffffffffffffffffffffff1681565b6001604051806040016040528084815260200183815250908060018154018082558091505060019003906000526020600020906002020160009091909190915060008201518160000190805190602001906102669291906107f9565b506020820151816001015550506000600180805490506102869190610d91565b9050336002600083815260200190815260200160002060006101000a81548173ffffffffffffffffffffffffffffffffffffffff021916908373ffffffffffffffffffffffffffffffffffffffff160217905550600360003373ffffffffffffffffffffffffffffffffffffffff1673ffffffffffffffffffffffffffffffffffffffff168152602001908152602001600020600081548092919061032a90610dc5565b91905055507fdfd743ce06ae96d90e234a241335c0b4c0bf10ac2e8fb95424113576297e4b5881848460405161036293929190610e0e565b60405180910390a1505050565b60036020528060005260406000206000915090505481565b61038f6105d2565b61039857600080fd5b600073ffffffffffffffffffffffffffffffffffffffff1660008054906101000a900473ffffffffffffffffffffffffffffffffffffffff1673ffffffffffffffffffffffffffffffffffffffff167f8be0079c531659141344cd1fd0a4f28419497f9722a3daafe3b4186f6b6457e060405160405180910390a360008060006101000a81548173ffffffffffffffffffffffffffffffffffffffff021916908373ffffffffffffffffffffffffffffffffffffffff160217905550565b60606000600360008473ffffffffffffffffffffffffffffffffffffffff1673ffffffffffffffffffffffffffffffffffffffff1681526020019081526020016000205467ffffffffffffffff8111156104b3576104b261098a565b5b6040519080825280602002602001820160405280156104e15781602001602082028036833780820191505090505b5090506000805b60018054905081101561059e578473ffffffffffffffffffffffffffffffffffffffff166002600083815260200190815260200160002060009054906101000a900473ffffffffffffffffffffffffffffffffffffffff1673ffffffffffffffffffffffffffffffffffffffff16141561058b57808383815181106105705761056f610e4c565b5b602002602001018181525050818061058790610dc5565b9250505b808061059690610dc5565b9150506104e8565b508192505050919050565b60008060009054906101000a900473ffffffffffffffffffffffffffffffffffffffff16905090565b60008060009054906101000a900473ffffffffffffffffffffffffffffffffffffffff1673ffffffffffffffffffffffffffffffffffffffff163373ffffffffffffffffffffffffffffffffffffffff1614905090565b6001818154811061063957600080fd5b906000526020600020906002020160009150905080600001805461065c90610eaa565b80601f016020809104026020016040519081016040528092919081815260200182805461068890610eaa565b80156106d55780601f106106aa576101008083540402835291602001916106d5565b820191906000526020600020905b8154815290600101906020018083116106b857829003601f168201915b5050505050908060010154905082565b6106ed6105d2565b6106f657600080fd5b6106ff81610702565b50565b600073ffffffffffffffffffffffffffffffffffffffff168173ffffffffffffffffffffffffffffffffffffffff16141561073c57600080fd5b8073ffffffffffffffffffffffffffffffffffffffff1660008054906101000a900473ffffffffffffffffffffffffffffffffffffffff1673ffffffffffffffffffffffffffffffffffffffff167f8be0079c531659141344cd1fd0a4f28419497f9722a3daafe3b4186f6b6457e060405160405180910390a3806000806101000a81548173ffffffffffffffffffffffffffffffffffffffff021916908373ffffffffffffffffffffffffffffffffffffffff16021790555050565b82805461080590610eaa565b90600052602060002090601f016020900481019282610827576000855561086e565b82601f1061084057805160ff191683800117855561086e565b8280016001018555821561086e579182015b8281111561086d578251825591602001919060010190610852565b5b50905061087b919061087f565b5090565b5b80821115610898576000816000905550600101610880565b5090565b6000604051905090565b600080fd5b600080fd5b6000819050919050565b6108c3816108b0565b81146108ce57600080fd5b50565b6000813590506108e0816108ba565b92915050565b6000602082840312156108fc576108fb6108a6565b5b600061090a848285016108d1565b91505092915050565b600073ffffffffffffffffffffffffffffffffffffffff82169050919050565b600061093e82610913565b9050919050565b61094e81610933565b82525050565b60006020820190506109696000830184610945565b92915050565b600080fd5b600080fd5b6000601f19601f8301169050919050565b7f4e487b7100000000000000000000000000000000000000000000000000000000600052604160045260246000fd5b6109c282610979565b810181811067ffffffffffffffff821117156109e1576109e061098a565b5b80604052505050565b60006109f461089c565b9050610a0082826109b9565b919050565b600067ffffffffffffffff821115610a2057610a1f61098a565b5b610a2982610979565b9050602081019050919050565b82818337600083830152505050565b6000610a58610a5384610a05565b6109ea565b905082815260208101848484011115610a7457610a73610974565b5b610a7f848285610a36565b509392505050565b600082601f830112610a9c57610a9b61096f565b5b8135610aac848260208601610a45565b91505092915050565b60008060408385031215610acc57610acb6108a6565b5b600083013567ffffffffffffffff811115610aea57610ae96108ab565b5b610af685828601610a87565b9250506020610b07858286016108d1565b9150509250929050565b610b1a81610933565b8114610b2557600080fd5b50565b600081359050610b3781610b11565b92915050565b600060208284031215610b5357610b526108a6565b5b6000610b6184828501610b28565b91505092915050565b610b73816108b0565b82525050565b6000602082019050610b8e6000830184610b6a565b92915050565b600081519050919050565b600082825260208201905092915050565b6000819050602082019050919050565b610bc9816108b0565b82525050565b6000610bdb8383610bc0565b60208301905092915050565b6000602082019050919050565b6000610bff82610b94565b610c098185610b9f565b9350610c1483610bb0565b8060005b83811015610c45578151610c2c8882610bcf565b9750610c3783610be7565b925050600181019050610c18565b5085935050505092915050565b60006020820190508181036000830152610c6c8184610bf4565b905092915050565b60008115159050919050565b610c8981610c74565b82525050565b6000602082019050610ca46000830184610c80565b92915050565b600081519050919050565b600082825260208201905092915050565b60005b83811015610ce4578082015181840152602081019050610cc9565b83811115610cf3576000848401525b50505050565b6000610d0482610caa565b610d0e8185610cb5565b9350610d1e818560208601610cc6565b610d2781610979565b840191505092915050565b60006040820190508181036000830152610d4c8185610cf9565b9050610d5b6020830184610b6a565b9392505050565b7f4e487b7100000000000000000000000000000000000000000000000000000000600052601160045260246000fd5b6000610d9c826108b0565b9150610da7836108b0565b925082821015610dba57610db9610d62565b5b828203905092915050565b6000610dd0826108b0565b91507fffffffffffffffffffffffffffffffffffffffffffffffffffffffffffffffff821415610e0357610e02610d62565b5b600182019050919050565b6000606082019050610e236000830186610b6a565b8181036020830152610e358185610cf9565b9050610e446040830184610b6a565b949350505050565b7f4e487b7100000000000000000000000000000000000000000000000000000000600052603260045260246000fd5b7f4e487b7100000000000000000000000000000000000000000000000000000000600052602260045260246000fd5b60006002820490506001821680610ec257607f821691505b60208210811415610ed657610ed5610e7b565b5b5091905056fea26469706673582212205dc4638b95764e74c41664160c59b2d2007c0292313a9ccd4ec2bf0b3678a92764736f6c634300080b0033",
  "immutableReferences": {},
  "source": "// SPDX-License-Identifier: MIT\npragma solidity >=0.7.0 <0.9.0;\n\nimport \"./documentcreation.sol\";\n\ncontract DocumentHelper is DocumentCreation {\n\n  function getDocumentsByOwner(address _owner) external view returns(uint[] memory) {\n    uint[] memory result = new uint[](ownerDocumentCount[_owner]);\n    uint counter = 0;\n    for (uint i = 0; i < documents.length; i++) {\n      if (documentToOwner[i] == _owner) {\n        result[counter] = i;\n        counter++;\n      }\n    }\n    return result;\n  }\n\n}\n",
  "sourcePath": "/Users/JordanSun/Desktop/documentHandling v2/src/contracts/documenthelper.sol",
  "compiler": {
    "name": "solc",
    "version": "0.8.11+commit.d7f03943.Emscripten.clang"
  },
  "schemaVersion": "3.4.1",
  "updatedAt": "2021-12-22T06:24:38.889Z",
  "devdoc": {
    "kind": "dev",
    "methods": {
      "isOwner()": {
        "returns": {
          "_0": "true if `msg.sender` is the owner of the contract."
        }
      },
      "owner()": {
        "returns": {
          "_0": "the address of the owner."
        }
      },
      "renounceOwnership()": {
        "details": "Allows the current owner to relinquish control of the contract."
      },
      "transferOwnership(address)": {
        "details": "Allows the current owner to transfer control of the contract to a newOwner.",
        "params": {
          "newOwner": "The address to transfer ownership to."
        }
      }
    },
    "version": 1
  },
  "userdoc": {
    "kind": "user",
    "methods": {
      "renounceOwnership()": {
        "notice": "Renouncing to ownership will leave the contract without an owner. It will not be possible to call the functions with the `onlyOwner` modifier anymore."
      }
    },
    "version": 1
  }
}